:020000040000FA
:020000003C289A
:040002000034003492
:080008008B13A400030EA500F8
:100010000B1919208C1815200C1B1E208C1A262059
:10002000250E8300A40E240E09000C1A23208C1028
:100030000800F83081004C200B1108000C131E083A
:10004000A8009F1408002808990008001A088800D2
:1000500008000F3982078834BB3494349134A334B8
:10006000C134C0349B34803481348234E034CC34A5
:08007000B034C434C6340800AA
:0800780060207F208920722026
:10008000772099204328A901AA0108080F39A9005F
:10009000080E0F39AA00432823185028A3185828FF
:1000A00089012908292086000914A301A314080046
:1000B00089012A08292086008914A3012314080035
:1000C0008316031788010814831603138501850915
:1000D0008601880189018312031385018601890144
:1000E000880108008316031361300F080800831687
:1000F00003139F018312031383309F0008008316AC
:10010000031364005730810083120313FF30920001
:100110000800831603130C170C148C148C160C1681
:100120008B160B1714309200831203138B170B11CD
:100130000800831603131812181583160317871562
:1001400083160313193099009A0183120313981729
:100150001813181683160313981683120313080036
:02400E00D420BC
:02401000FF3F70
:00000001FF
