:020000040000FA
:02000000B42822
:040002000034003492
:080008008B13A300030EA400FA
:100010000B1919208C1815200C1B1E208C1A64201B
:10002000240E8300A30E230E09000C1A2E208C1020
:100030000800F8308100C9200B1108002B18262871
:100040001E08AF002B141F154E212B281E08AC00D4
:100050002B101F114E219F140C130800AB184A28B7
:10006000AB1945282F088E20B7002F0EB300330898
:100070008E20B6002B1A4028360899002B1608004F
:1000800037089900AB152B1208002C309900AB14DF
:10009000AB110800AB195F282C088E20B9002C0E7C
:1000A000B50035088E20B8002B1A5A283808990058
:1000B0002B16080039089900AB152B1208000A30DE
:1000C0009900AB10AB1108002B197A28AB1A6C28D9
:1000D0001A08B000AB1608002B1B72281A08B100D2
:1000E0002B1708002C309A02031D08002B132B1528
:1000F000AB120800AB1A80281A08AD00AB16080036
:100100002B1B86281A08AE002B1708000A301A028B
:10011000031D08002B13AB122B1108000F398207A7
:100120003034313432343334343435343634373493
:100130003834393441344234433444344534463419
:1001400008000F3982078834BB3494349134A334C7
:10015000C134C0349B34803481348234E034CC34B4
:08016000B034C434C6340800B9
:08016800E320192123210C21E1
:1001700011213221BB2830302D02A70030302E0251
:10018000A80030303002A90030303102AA009F149C
:10019000BB282218CD28A218D82889012708A12019
:1001A00086002908A12088000914A201A2140800D1
:1001B00089012808A12086002A08A1208800891426
:1001C000A20122140800831603178801081488145A
:1001D0008901831603138501850986018801890138
:1001E000831203138501860189018801AC01AF01E7
:1001F000A701A801A901AA01AC01AD01AE01AF019F
:10020000B001B101B201B301B401B501BA01BB0142
:10021000BC01BD01AB0108008316031361300F0858
:100220000800831603139F018312031387309F0076
:100230000800831603136400D73081008312031370
:10024000FF3092000800831603130C170C148C1453
:100250008C168B160B1714309200831203138B1716
:100260000B1108008316031318129816181518138B
:1002700083160317871183160313193099009A0107
:100280008312031398171813181683120313080008
:10029000FA30A5004E21A50B4A290800FA30A60025
:0602A000A60B5029080026
:02400E00D420BC
:02401000FF3F70
:00000001FF
