:020000040000FA
:02000000622874
:040002000034003492
:080008008B13A300030EA400FA
:100010000B1919208C1815200C1B1E208C1A45203A
:10002000240E8300A30E230E09000C1A2D208C1021
:100030000800F830810074200B1108002B182628C6
:100040001E08AE002B141F15FB202B281E08AC0029
:100050002B101F11FB200C130800AB183A28AB190A
:1000600035282E089900AB1508002C309900AB14E8
:10007000AB110800AB1940282C089900AB150800FB
:100080000A309900AB10AB1108002B194B281A0845
:10009000AF002B1508001A08AD002B1108000F390E
:1000A00082078834BB3494349134A334C134C034CF
:1000B0009B34803481348234E034CC34B034C43462
:0400C000C63408003A
:0C00C4008E20B020BA20A320A820DF204E
:1000D0006928F5209F142D08AA002D0EA9002F08CD
:1000E000A8002F0EA700692822187828A2188328B4
:1000F000890127084F20860029084F20880009140D
:10010000A201A2140800890128084F2086002A08AD
:100110004F2088008914A2012214080083160317B7
:100120008801081488148316031385018509860144
:1001300088018901831203138501860189018801E1
:10014000AC01AB0108008316031361300F080800EF
:10015000831603139F018312031387309F00080047
:10016000831603136400D730810083120313FF301A
:1001700092000800831603130C170C148C148C16B1
:100180008B160B1714309200831203138B170B116D
:1001900008008316031318129816181518138316DF
:1001A0000317871183160313193099009A018312DC
:1001B00003139817181318168312031308008316D5
:1001C00003131813181218158316031787118316B3
:1001D0000313193099009A0198168312031383129E
:1001E00003139817181318160800FA30A500FB20FF
:1001F000A50BF7280800FA30A600A60BFD2808007A
:02400E00D420BC
:02401000FF3F70
:00000001FF
