:020000040000FA
:020000002928AD
:040002000034003492
:080008008B13A400030EA500F8
:100010000B1911208C1A8715250E8300A40E240EAF
:100020000900F830810051200B1108000F398207B8
:100030008834BB3494349134A334C134C0349B34F9
:10004000803481348234E034CC34B034C434C634A7
:020050000800A6
:0E005200652084208A2077207C20942030288E
:1000600006180911061C0915AB209F149F18362885
:100070000C131E08A8008C1E43281A08A0001A089A
:100080008800482030280C1E302828089900302885
:10009000A201A10120080F39A200200E0F39A100F2
:1000A000302823185528A3185D2889012108162017
:1000B00086000914A301A314080089012208162050
:1000C00086008914A30123140800831603178801EE
:1000D0008809831603138501850986018801890132
:1000E00083120313850186018901880108008316A4
:1000F000031361300F080800831603139F01831256
:10010000031341309F000800831603136400573027
:1001100081000800831603130C148B160B1783122F
:1001200003138B170B1108008316031318121815ED
:1001300083160317871583160313193099009A0144
:10014000831203139817181318168316031398169F
:10015000831203130800FA30A600B120A60BAD28C5
:0C0160000800FA30A700A70BB328080025
:02400E00D420BC
:02401000FF3F70
:00000001FF
