:020000040000FA
:02000000522884
:040002000034003492
:080008008B13A300030EA400FA
:100010000B1919208C1815200C1B1E208C1A372048
:10002000240E8300A30E230E09000C1A2F208C101F
:100030000800F830810062200B1108002B182728D7
:100040001E08AE002B1483309F00DC202D281E08D4
:10005000AC002B1087309F00DC200C1308002B18FD
:1000600034282E08990008002C08990008002B1845
:100070003C281A08AF0008001A08AD0008000F3924
:1000800082078834BB3494349134A334C134C034EF
:100090009B34803481348234E034CC34B034C43482
:0400A000C63408005A
:0C00A40076209820A2208B209020B12014
:1000B00059282D088800D6209F142F08A8002F0E3D
:1000C000A700592822186628A2186E288901270837
:1000D0003F2086000914A201A21408008901280803
:1000E0003F2086008914A2012214080083160317FA
:1000F0008801081488148316031385018509860175
:100100008801890183120313850186018901880111
:10011000AC01AB0108008316031361300F0808001F
:10012000831603139F018312031383309F0008007B
:10013000831603136400D730810083120313FF304A
:1001400092000800831603130C170C148C148C16E1
:100150008B160B1714309200831203138B170B119D
:100160000800831603131812181583160317871532
:1001700083160313193099009A01831203139817F9
:100180001813181683160313981683120313080006
:100190008316031318121815831603178715831671
:1001A00003134030990003309A000800FA30A5008C
:1001B000DC20A50BD8280800FA30A600A60BDE2804
:0201C000080035
:02400E00D420BC
:02401000FF3F70
:00000001FF
